:020000040000FA
:020000000328D3
:040002000034003492
:0A00060003138312F030A00007304E
:10001000A100C030A2000C30A300C030A4000E30FC
:10002000A500A030A6005030A7005030A800053031
:10003000A9003030B000CC30B1003030B200073011
:10004000B300E030B4000F30B5000130B60002302C
:10005000B7000030B8000030B9000030C0000030F8
:10006000C1000030C2000030C3000030C4000030C6
:10007000C5000030C6000030C7000030C8000030A6
:10008000C9000030D0000030D1000030AA000313B6
:10009000831600308500FF308600FF308700003077
:1000A000880003138312CE20E420F8205D205D2019
:1000B000F820003088005628472806185214861861
:1000C000D214061952158619D215061A5216861A16
:1000D000D216061B5217861BD217D20AD20B7128D2
:1000E0005D2852088800071853148718D31407197D
:1000F00053158719D315071A5316871AD316071BDA
:100100005317871BD317D30AD30B8728712853089B
:1001100088002A1C8C28AA2852183630D21837306A
:1001200052193830D2193930521A4030D21A41306F
:10013000521B4230D21B433084008313530880008B
:10014000360885002A1C2A142A100030D2000030FC
:10015000D300080052184430D218453052194630A6
:10016000D2194730521A4830D21A4930521B5030F7
:10017000D21B51308400831353088000520885003D
:100180002A1C2A142A100030D2000030D3000800A4
:100190000515051108008514851008000510C820F4
:1001A000C820C820C8200514C820C8200510C820B1
:1001B000C820C820C820C820C820C820C820C820FF
:1001C0000514C820CB2008000510C820C820C8206E
:1001D000C820C820C820C8200514C820C820C820AE
:1001E000C820C820C820C820C820C820CB200800AC
:1001F0000130AB003608AC0021210230AB003708DB
:10020000AC0021210330AB003808AC0021210430C0
:10021000AB003908AC0021210530AB004008AC0030
:1002200021210630AB004108AC0021210730AB0092
:100230004208AC0021210830AB004308AC0021216A
:10024000080005100830BB00AB1B0514C8200510C2
:100250000310AB0DBB0B24290830BB000510AC1BF1
:100260000514C82005100310AC0DBB0B2E29CB20A4
:02027000080084
:02400E00BB3FB6
:00000001FF
