:020000040000FA
:020000000328D3
:040002000034003492
:0A00060003138312F030A00007304E
:10001000A100C030A2000C30A300C030A4000E30FC
:10002000A500A030A6005030A7005030A800053031
:10003000A9003030B000CC30B1003030B200073011
:10004000B300E030B4000F30B5000030B60000302F
:10005000B7000030B8000030B9000030C0000030F8
:10006000C1000030C2000030C3000030C4000030C6
:10007000C5000030C6000030C7000030C8000030A6
:10008000C9000030D0000030D1000030AA000313B6
:10009000831600308500FF308600FF308700003077
:1000A000880003138312CC20E2205B205B20003009
:1000B000880055284728061852148618D2140619A5
:1000C00052158619D215061A5216861AD216061B12
:1000D0005217861BD217D20AD20B6F285B28520800
:1000E0008800071853148718D31407195315871954
:1000F000D315071A5316871AD316071B5317871BD6
:10010000D317D30AD30B85286F28530888002A1CDD
:100110008A28A82852183630D21837305219383069
:10012000D2193930521A4030D21A4130521B423063
:10013000D21B4330840083135308800036088500A7
:100140002A1C2A142A100030D2000030D3000800E4
:1001500052184430D218453052194630D21947301F
:10016000521A4830D21A4930521B5030D21B5130EB
:100170008400831353088000520885002A1C2A1427
:100180002A100030D2000030D300080005150511F8
:1001900008008514851008000510C620C620C6205A
:1001A000C6200514C620C6200510C620C620C620BD
:1001B000C620C620C620C620C620C6200514C620DC
:1001C000C92008000510C620C620C620C620C620AB
:1001D000C620C6200514C620C620C620C620C620BC
:0C01E000C620C620C620C620C92008008A
:02400E00BB3FB6
:00000001FF
