:020000040000FA
:020000000328D3
:040002000034003492
:0A00060003138312F030A00007304E
:10001000A100C030A2000C30A300C030A4000E30FC
:10002000A500A030A6005030A7005030A800053031
:10003000A9003030B000CC30B1003030B200073011
:10004000B300E030B4000F30B5000130B60002302C
:10005000B7000030B8000030B9000030C0000030F8
:10006000C1000030C2000030C3000030C4000030C6
:10007000C5000030C6000030C7000030C8000030A6
:10008000C9008030D0008030D1000030AA000313B6
:10009000831600308500FF308600FF308700003077
:1000A000880003138312CC20E2205D20E2205D2033
:1000B000E220003088005428472806185214861879
:1000C000D214061952158619D215061A5216861A16
:1000D000D216061B5217861BD217D20AD20B7128D2
:1000E0005D2852088800071853148718D31407197D
:1000F00053158719D315071A5316871AD316071BDA
:100100005317871BD317D30AD30B8728712853089B
:1001100088002A1C8C28A92852183630D21837306B
:1001200052193830D2193930521A4030D21A41306F
:10013000521B4230D21B433084008001831353088A
:100140008000360885002A140030D2000030D30029
:10015000080052184430D218453052194630D2198E
:100160004730521A4830D21A4930521B5030D21BF5
:1001700051308400800183135308800052088500A9
:100180002A100030D2000030D300080005150511F8
:1001900008008514851008000510C620C620C6205A
:1001A000C6200514C620C6200510C620C620C620BD
:1001B000C620C620C620C620C620C6200514C620DC
:1001C000C92008002A1CE5280E290130AB0036089A
:1001D000AC0037210230AB003708AC0037210330C8
:1001E000AB003808AC0037210430AB003908AC0054
:1001F00037210530AB004008AC0037210630AB009A
:100200004108AC0037210730AB004208AC00372171
:100210000830AB004308AC00372108000130AB00C8
:100220004408AC0037210230AB004508AC00372150
:100230000330AB004608AC0037210430AB00470860
:10024000AC0037210530AB004808AC003721063040
:10025000AB004908AC0037210730AB005008AC00B8
:1002600037210830AB005108AC00372108000510D9
:100270000830BB00AB1B0514C62005100310AB0DE6
:10028000BB0B3A290830BB000510AC1B0514C62077
:0E02900005100310AC0DBB0B4429C92008005B
:02400E00BB3FB6
:00000001FF
