:020000040000FA
:020000000328D3
:040002000034003492
:0A000600031383120030A000033042
:10001000A1000030A2000030A3000030A400003096
:10002000A5000030A6000030A7006030A800003016
:10003000A9000030B0000030B1000030B200003044
:10004000B3000030B4000030B5000030B60000301E
:10005000B7000030B8000030B9000030C0000030F8
:10006000C1000030C2000030C3000030C4000030C6
:10007000C5000030C6000030C7000030C8000030A6
:10008000C9000030D0000030D1000030AA00FF309D
:10009000D4003C10BC103C110313831600308500C3
:1000A000FF308600FF308700003088000313831282
:1000B0009C21B221CC20C2206A20BC186620B2212B
:1000C000CC20C22098203C1994205928FF30880069
:1000D00068280800BC14280936045402031DBC100B
:1000E000290937045402031DBC1030093804540296
:1000F000031DBC10310939045402031DBC10320920
:1001000040045402031DBC10330941045402031D72
:10011000BC10340942045402031DBC1035094304C9
:100120005402031DBC1008000F30880096280800F8
:100130003C15200944045402031D3C1121094504C7
:100140005402031D3C11220946045402031D3C11B4
:10015000230947045402031D3C1124094804540296
:10016000031D3C11250949045402031D3C112609B5
:1001700050045402031D3C11270951045402031D6D
:100180003C1108003C1805163C1C85160330AD00D8
:100190001F22051285120800061852148618D21460
:1001A000061952158619D215061A5216861AD21633
:1001B000061B5217861BD217D20AD20BE028CC2876
:1001C000071853148718D314071953158719D31513
:1001D000071A5316871AD316071B5317871BD317F3
:1001E000D30AD30BF428E0282A1CF8282A18472918
:1001F00052183630D218373052193830D2193930B7
:10020000521A4030D21A4130521B4230D21B433076
:100210008400831352183608D21837085219380848
:10022000D2193908521A4008D21A4108521B420802
:10023000D21B4308BA0053183A14D318BA145319EE
:100240003A15D319BA15531A3A16D31ABA16531BBC
:100250003A17D31BBA173A0880003C1052182808E6
:10026000D218290852193008D2193108521A320806
:10027000D21A3308521B3408D21B35085305031D0C
:100280003C142A140030D2000030D3000800521869
:100290004430D218453052194630D2194730521ADC
:1002A0004830D21A4930521B5030D21B5130840092
:1002B000831352184408D218450852194608D21917
:1002C0004708521A4808D21A4808521B5008D21B35
:1002D0005108BA0053183A14D318BA1453193A15DE
:1002E000D319BA15531A3A16D31ABA16531B3A171A
:1002F000D31BBA173A0880003C1052182008D218B5
:10030000210852192208D2192308521A2408D21A95
:100310002508521B2608D21B27085305031D3C1431
:100320002A100030D2000030D30008000515051156
:100330000800851485100800051096219621962145
:100340009621051496219621051096219621962135
:100350009621962196219621962196210514962183
:10036000992108002A1CB529DE290130AB00360886
:10037000AC0007220230AB003708AC000722033084
:10038000AB003808AC0007220430AB003908AC00E1
:1003900007220530AB004008AC0007220630AB0056
:1003A0004108AC0007220730AB004208AC0007222E
:1003B0000830AB004308AC00072208000130AB0056
:1003C0004408AC0007220230AB004508AC0007220D
:1003D0000330AB004608AC0007220430AB004708EE
:1003E000AC0007220530AB004808AC0007220630FD
:1003F000AB004908AC0007220730AB005008AC0046
:1004000007220830AB005108AC0007220800051095
:100410000830BB00AB1B0514962105100310AB0D73
:10042000BB0B0A2A0830BB000510AC1B0514962133
:1004300005100310AC0DBB0B142A99210800FF30E6
:10044000AE00AD0B242A0800FF30AF00AE0B292A06
:080450001F2AAF0B292A242A00
:02400E00BB3FB6
:00000001FF
