:020000040000FA
:020000000328D3
:040002000034003492
:0A00060003138312F030A00007304E
:10001000A100C030A2000C30A300C030A4000E30FC
:10002000A500A030A6005030A7005030A800053031
:10003000A9003030B000CC30B1003030B200073011
:10004000B300E030B4000F30B5008030B60080302F
:10005000B7000030B8000030B9000030C0000030F8
:10006000C1000030C2000030C3000130C4000130C4
:10007000C5000030C6000030C7000030C8000030A6
:10008000C9000030D0000030D1000030AA000313B6
:10009000831600308500FF308600FF308700003077
:1000A000880003138312032119215B2019215B208F
:1000B000192154284728061852148618D2140619F4
:1000C00052158619D215061A5216861AD216061B12
:1000D0005217861BD217D20AD20B6F285B2807183B
:1000E00053148718D314071953158719D315071AF2
:1000F0005316871AD316071B5317871BD317D30A18
:10010000D30B83286F282A1C87282A18C228521844
:100110003630D218373052193830D2193930521A95
:100120004030D21A4130521B4230D21B433084003F
:10013000831352183608D218370852193808D219C2
:100140003908521A4008D21A4108521B4208D21BE1
:100150004308BA0053183A14D318BA1453193A156D
:10016000D319BA15531A3A16D31ABA16531B3A179B
:10017000D31BBA173A0880002A140030D20000308E
:10018000D300080052184430D21845305219463076
:10019000D2194730521A4830D21A4930521B5030C7
:1001A000D21B51308400831352184408D2184508DA
:1001B00052194608D2194708521A4808D21A480854
:1001C000521B5008D21B5108BA0053183A14D318C6
:1001D000BA1453193A15D319BA15531A3A16D31A31
:1001E000BA16531B3A17D31BBA173A0880002A10C5
:1001F0000030D2000030D3000800051505110800BA
:100200008514851008000510FD20FD20FD20FD202F
:100210000514FD20FD200510FD20FD20FD20FD2002
:10022000FD20FD20FD20FD20FD200514FD200021E6
:1002300008002A1C1C2945290130AB003608AC00F7
:100240006E210230AB003708AC006E210330AB00EA
:100250003808AC006E210430AB003908AC006E21C8
:100260000530AB004008AC006E210630AB00410801
:10027000AC006E210730AB004208AC006E210830A4
:10028000AB004308AC006E2108000130AB0044080D
:10029000AC006E210230AB004508AC006E2103308B
:1002A000AB004608AC006E210430AB004708AC0040
:1002B0006E210530AB004808AC006E210630AB0063
:1002C0004908AC006E210730AB005008AC006E212D
:1002D0000830AB005108AC006E2108000510083052
:1002E000BB00AB1B0514FD2005100310AB0DBB0BB1
:1002F00071290830BB000510AC1B0514FD2005104A
:0C0300000310AC0DBB0B7B290021080092
:02400E00BB3FB6
:00000001FF
