:020000040000FA
:020000000328D3
:040002000034003492
:0A000600031383128030A0000030C5
:10001000A1000030A2000030A3000030A400003096
:10002000A5000030A6000030A7000130A800013074
:10003000A9000030B0000030B1000030B200003044
:10004000B3000030B4000030B5000030B60000301E
:10005000B7000030B8000030B9000030C0000030F8
:10006000C1000030C2000030C3000030C4000030C6
:10007000C5000030C6000030C7000030C8000030A6
:10008000C9000030D0000030D1000030AA00FF309D
:10009000D4003C10BC103C110313831600308500C3
:1000A000FF308600FF308700003088000030890074
:1000B00003138312AB2146220130F20010230030DB
:1000C000F300C121D720CD207620BC187320023048
:1000D000F20010230030F300C121D720CD20A3204F
:1000E0003C19A0205C28432374280800BC1428096C
:1000F00036045402031DBC10290937045402031DA1
:10010000BC10300938045402031DBC1031093904F5
:100110005402031DBC10320940045402031DBC10DC
:10012000330941045402031DBC1034094204540233
:10013000031DBC10350943045402031DBC10080004
:100140004323A12808003C15200944045402031D40
:100150003C11210945045402031D3C1122094604A7
:100160005402031D3C11230947045402031D3C1192
:10017000240948045402031D3C1125094904540272
:10018000031D3C11260950045402031D3C1127098C
:1001900051045402031D3C1108003C1824233C1C4C
:1001A00032230330AD002E220512851208000618F6
:1001B00052148618D214061952158619D215061A29
:1001C0005216861AD216061B5217861BD217D20A4F
:1001D000D20BEB28D728F30BFB220130F3000718D2
:1001E00053148718D314071953158719D315071AF1
:1001F0005316871AD316071B5317871BD317D30A17
:10020000D30B0329EB282A1C07292A185629521830
:100210003630D218373052193830D2193930521A94
:100220004030D21A4130521B4230D21B433084003E
:10023000831352183608D218370852193808D219C1
:100240003908521A4008D21A4108521B4208D21BE0
:100250004308BA0053183A14D318BA1453193A156C
:10026000D319BA15531A3A16D31ABA16531B3A179A
:10027000D31BBA173A0880003C1052182808D2182D
:10028000290852193008D2193108521A3208D21AE4
:100290003308521B3408D21B35085305031D3C1488
:1002A0002A140030D2000030D30008005218443025
:1002B000D218453052194630D2194730521A4830B8
:1002C000D21A4930521B5030D21B51308400831354
:1002D00052184408D218450852194608D21947083E
:1002E000521A4808D21A4808521B5008D21B51080B
:1002F000BA0053183A14D318BA1453193A15D3192B
:10030000BA15531A3A16D31ABA16531B3A17D31BF7
:10031000BA173A0880003C1052182008D218210859
:1003200052192208D2192308521A2408D21A250871
:10033000521B2608D21B27085305031D3C142A1004
:100340000030D2000030D300080005150511080068
:100350008514851008000510A521A521A521A5213A
:100360000514A521A5210510A521A521A521A521BB
:10037000A521A521A521A521A5210514A521A821F7
:1003800008002A1CC429ED290130AB003608AC0056
:1003900016220230AB003708AC0016220330AB0047
:1003A0003808AC0016220430AB003908AC00162225
:1003B0000530AB004008AC0016220630AB00410807
:1003C000AC0016220730AB004208AC001622083001
:1003D000AB004308AC00162208000130AB00440813
:1003E000AC0016220230AB004508AC0016220330E8
:1003F000AB004608AC0016220430AB004708AC0046
:1004000016220530AB004808AC0016220630AB00BF
:100410004908AC0016220730AB005008AC00162289
:100420000830AB005108AC00162208000510083057
:10043000BB00AB1B0514A52105100310AB0DBB0BB6
:10044000192A0830BB000510AC1B0514A5210510A6
:100450000310AC0DBB0B232AA8210800FF30AE000F
:10046000AD0B332A0800FF30AF00AE0B382A2E2A1E
:10047000AF0B382A332A0230F0000230F100F003CB
:1004800003190800F10303193D2A422A00308900AC
:100490003830880057220E3088005722080001307B
:1004A0008900C03088005722053089000800091CE7
:1004B000890A3B22FE3089053B220800073088006C
:1004C0000130890057220800413088005422572209
:1004D0000800423088005422572208004330880028
:1004E0005422572208004430880054225722080022
:1004F0004530880054225722080046308800542294
:1005000057220800473088005422572208004830FC
:10051000880054225722080049308800542257226C
:1005200008004A3088005422572208004B308800C7
:100530005422572208004C308800542257220800C9
:100540004D3088005422572208004E308800542233
:10055000572208004F30880054225722080050309C
:100560008800542257220800523088005422572213
:100570000800533088005422572208005430880065
:100580005422572208005530880054225722080070
:1005900057308800542257220800593088005422CE
:1005A000572208005A308800542257220800313060
:1005B00088005422572208003230880054225722E3
:1005C0000800203088005422572208002E3088006E
:1005D0005422572208002130880054225722080054
:1005E0000130880001308900572202308800013034
:1005F00089005722080072185123F2185A234F22FB
:10060000C822CD2269228C227822B422D222E12271
:100610009622AA229B22C322A022A5227822080089
:1006200072185123F2185A234F22C822CD22692270
:100630008C227822B422D222E122C8228C22782273
:10064000B422B922D222080072185123F2185A2378
:100650004F22BE22B42264227D228C22AA22A5220D
:10066000CD22080072185123F2185A234F22A522D6
:100670008C227822BE22B42264227D228C22AA22DD
:10068000A522CD22080072185123F2185A234F22B6
:10069000C822CD228222B4226422A5226422EB2227
:1006A0000800F0228222B42264226E22D222E122A9
:1006B000D7220800F0228222B42264226E22D222A3
:0606C000E122DC2208002B
:02400E00BB3FB6
:00000001FF
